:020000040800F2
:10000000D03B0020490100086D4600082334000859
:1000100059460008850F0008B54D00080000000093
:10002000000000000000000000000000254800085B
:10003000F1120008000000009D460008F548000885
:100040006301000863010008630100086301000800
:1000500063010008630100086301000863010008F0
:1000600063010008630100086301000863010008E0
:1000700063010008630100086301000863010008D0
:1000800063010008630100086301000863010008C0
:100090006301000863010008630100089914000867
:1000A00063010008630100086301000863010008A0
:1000B00075490008814900088D490008630100085E
:1000C0006301000863010008630100086301000880
:1000D0006301000863010008630100086301000870
:1000E0006301000863010008630100086301000860
:1000F0006301000863010008630100086301000850
:10010000630100086301000863010008630100083F
:10011000630100086301000863010008630100082F
:10012000630100086301000863010008630100081F
:10013000DFF810D000F032FE004800475970000888
:10014000AFF30080D03B00200648804706480047B8
:10015000FEE7FEE7FEE7FEE7FEE7FEE7FEE7FEE777
:10016000FEE7FEE77349000831010008202A04DB9E
:10017000203A21FA02F00021704721FA02F3D04020
:10018000C2F120029140084319467047A0F1410195
:10019000192900D82030704740EA01039B0703D09B
:1001A00009E008C9121F08C0042AFAD203E011F8B6
:1001B000013B00F8013B521EF9D27047D2B201E078
:1001C00000F8012B491EFBD270470022F6E710B55C
:1001D00013460A4604461946FFF7F0FF204610BDB5
:1001E00030B505462A460B4612F8010B13F8014BB1
:1001F00008B1A042F8D01CB1002802D06D1CF1E774
:10020000284630BD10B5044604E00B7800F8013BE9
:1002100003B1491C521EF8D2204610BDCAB2401E7E
:1002200010F8011F8A4202D00029F9D1002070473E
:10023000421C10F8011B0029FBD1801A704710B531
:10024000002200E0521C835C8C5CA34201D1002B95
:10025000F8D1D8B2E1B2401A10BD034611F8012B13
:1002600000F8012B002AF9D11846704730B5054631
:100270000020034600E05B1C934205D2EC5CC85CA6
:10028000201A01D1002CF6D130BD00002DE9FF4F1E
:10029000087883B09946FF2805D0491C2D2804D042
:1002A0000024002008E000200BE00124F9E700EB27
:1002B000800003EB4000491C0B78FF2BF7D104B101
:1002C000404200230293147819461D462D2C01D07C
:1002D0002B2C04D1521C2D2C13D000240294AA469E
:1002E0001478FF2C0FD00A25A3FB057801FB0581AC
:1002F0004FF0000C03FB0C11521CE3194AEB0101F7
:10030000EEE70124EAE7814453EA010002D019F53F
:10031000C87F06DA03980021C0E9001107B0BDE8E4
:10032000F08F0025AE4E2F46DFF8B882184600F059
:10033000F5FCCDE90001B9F1000002DAC9F10004D1
:1003400000E004460023A74A1AEB030B42EB045AD1
:1003500012E0E00707D02A4633463846414600F00F
:100360002AFA074688462A4633461046194600F0C0
:1003700022FA05460E466410002CEAD1DDE90001A0
:10038000B9F1000F5A46534606DA00F086FA3A46AB
:10039000434600F082FA05E000F00DFA3A46434683
:1003A00000F009FA029A0AB181F00041039AC2E909
:1003B0000001B3E72DE9FF4F1F468DB0D7E9014695
:1003C0004FF0FF382E2045464FF000090B90B969D9
:1003D0006D1C0E988847396A824688470028F6D1F6
:1003E000BAF1FF3F0AD024F4D064002E11DDBAF137
:1003F0002B0F08D0BAF12D0F0BD102E0404611B0FF
:100400008DE744F48064B9696D1C0E988847824674
:10041000761E6946600501D52D2000E02B208DF861
:10042000000001F1010B0DF1200809E0B9696D1C14
:100430000E98884782460F9844F40074761E056033
:10044000002E02DDBAF1300FF0D00B998A453ED173
:1004500044F0800406E00F99681CA9F1010944F4F6
:1004600000740860B9696D1C761E0E988847824634
:100470003028F0D02BE00B998A4505D1200603D413
:1004800044F08004761E18E0504604F019FE08B3CC
:100490000DF11301761E44F400748B4508D2AAF1C5
:1004A00030000BF8010B200607D5A9F1010003E08D
:1004B000200602D409F101008146A00502D50F995A
:1004C000681C0860B9696D1C0E9888478246002E2A
:1004D000D1DC53E0002E51DDBAF1650F02D0BAF144
:1004E000450F4BD1A00549D5B9696D1C24F4407462
:1004F000761E0E9888478246002E0CDD2B2804D0ED
:10050000BAF12D0F07D144F48074B9696D1C0E98AF
:1005100088478246761EE00501D52D2100E02B217B
:1005200008F8011BCDF82C8021E00DF12901761E81
:1005300044F4007488450CD2AAF1300010F0FF009A
:1005400088F8000002D10B99884509D908F1010803
:1005500006E0E00501D5244801E042F20F70814633
:10056000B9696D1C0E98884782460F980560002E69
:1005700004DD504604F0A4FD0028D6D1F9690E9898
:100580008847FF208BF8000088F8000000200690C4
:1005900007904B466A4608A906A8FFF777FEA00514
:1005A00002D46FF001002AE714F0240F0AD0E0070C
:1005B00014D1DDE906123868031D3B600068C0E90C
:1005C00000120BE0DDE9060100F0CCFB0146E0077C
:1005D00004D13868021D3A600068016028460EE7C1
:1005E000000014400000F03FF1D8FFFF80EA010254
:1005F00010B502F00043400022D04A001FD0010E87
:1006000001EB1261C0F35600C2F3560240F4000041
:1006100042F40002A0FB022000047F39140400D041
:10062000401C50EA124001D44000491EC2B20C06E0
:1006300004EBD010401C4008802A02D003E00020C8
:1006400010BD20F00100002900DA0020184310BD81
:10065000420005D0C0F3C7525242914201DC002053
:10066000704700EBC15070472DE9FE4F804681EA8C
:100670000300C00F0C46009021F0004123F000451C
:10068000B8EB0200A94105D24046214690461C46DF
:100690000B46024623F00040104347D0270DC7F316
:1006A0000A00C3F30A510290401A019040286BDA05
:1006B000C3F3130040F4801B0098924620B100233E
:1006C000D2EB030A63EB0B0B01985946C0F14002D1
:1006D000504600F000FA06460D4650465946019A2B
:1006E00000F008FA10EB08006141002487EA11527B
:1006F00084EAE7731A4340D0009A62B3019A012A50
:100700004FEA075215DC001B61EB02014FF000427B
:1007100002EA0752CDE90042001C41F58011324641
:100720002B4600F0ADFA03B0BDE8F08F40462146FD
:10073000F9E7001B61EB0201001C41F58013001872
:100740005B412018A2F5001747EB030140EAD57082
:10075000B6196D4111E06D084FEA360645EAC075DD
:100760004FEA0752001B61EB0201001C41F58011AA
:1007700049084FEA30000019514132462B4603B078
:10078000BDE8F04F00F06DBA009801224000002350
:10079000D0EB020263EBE073009821464FEAE0746D
:1007A000B8EB000061EB0401E9E783F000435BE78D
:1007B00081F0004158E72DE9FE4F81EA030404F07F
:1007C000004421F0004100944FF0000B23F000435F
:1007D00050EA01045ED052EA03045BD0C3F30A542A
:1007E000C1F30A552C44A4F2F3340194A0FB025443
:1007F000C1F3130141F48011C3F3130343F48013D5
:1008000001FB024400FB034E840A970A44EA815428
:1008100047EA8357A4FB076802958D0A05FB078505
:100820004FEA932C04FB0C542705029D4FEA06580F
:1008300047EA1637B5EB08056EEB070C870E920EEC
:1008400047EA811742EA8312A7FB0201B6EB0B01CC
:1008500064EB00042B0D43EA0C335E1844EB1C5090
:10086000DA465146E7FB0201C5F313044FEA0B33A6
:1008700043EA14534FEA0432019C43EA0603A4F10D
:100880000C040294009CCDE900B400F0F9F903B027
:10089000BDE8F08F00200146F9E72DE9F04D81EA2F
:1008A000030404F0004B21F0004514464FF0000A09
:1008B00023F0004150EA050220D054EA01021DD085
:1008C000C5F30A570246C5F31303C1F31300C1F37E
:1008D0000A5640F4801543F48013A7EB0608101B5A
:1008E000D64608F2FD3873EB050002D308F1010883
:1008F00001E092185B41B8F1000F03DA00200146D5
:10090000BDE8F08D00204FF48011064684460EE0CD
:10091000171B73EB050705D3121B63EB0503064397
:100920004CEA010C49084FEA300092185B4150EA4A
:100930000107EDD152EA030012D082EA040083EAF3
:100940000501084305D0101BAB4106D2012200234C
:1009500006E000224FF0004302E06FF00102531066
:100960001AEB06004CEB085110EB0A0041EB0B01AF
:10097000BDE8F04D00F075B996230022114600F055
:1009800042B970B5C1F30A5201F000450024C1F329
:10099000130140F2FF3341F480119A4201DA002042
:1009A00070BD40F233439A42A2F2334203DC52421A
:1009B000FFF7DCFB00E090402C43F1D0404270BDDB
:1009C00000F0004230F000400AD0C10D01F5607126
:1009D000C0F3160042EA0151C208400711437047B4
:1009E000002001467047000030B5041E71F100047C
:1009F00004DB4FF00044404264EB0101141E73F12C
:100A0000000405DB1C464FF00043524263EB040335
:100A10008B4208BF824230BD30B5041E71F1000424
:100A200004DB4FF00044404264EB0101141E73F1FB
:100A3000000405DB1C464FF00043524263EB040305
:100A4000994208BF904230BD30B50B4601460020A8
:100A50002022012409E021FA02F59D4205D303FA80
:100A600002F5491B04FA02F52844151EA2F1010201
:100A7000F1DC30BD2DE9F05F0546002092469B4633
:100A800088460646814640241BE0284641464746A4
:100A90002246FFF76BFB53465A46C01A914110D3CA
:100AA00011461846224600F016F82D1A67EB010889
:100AB0004F4622460120002100F00DF817EB0009F7
:100AC0004E41201EA4F10104DFDC484631462A468F
:100AD0004346BDE8F09F202A04DB203A00FA02F1E9
:100AE000002070479140C2F1200320FA03F319431C
:100AF00090407047202A06DBCB17203A41FA02F0DB
:100B000043EAE07306E041FA02F3D040C2F120026A
:100B10009140084319467047426842B1016811F894
:100B2000013B23B1521EC0E9001218467047012153
:100B3000C160881E704742685AB1C368016843B9F2
:100B400083688B4205D0491E521CC0E90012002068
:100B500070474FF0FF3070470FB4002300B589B0E5
:100B60000CA900910B996FF00042CB601E4B0693CD
:100B70001E4B07930423CDE901321D4A0892024619
:100B80006B460020FFF716FC09B05DF814FB70B54A
:100B900086B006464FF0FF300091CDE901010020FC
:100BA00015460C4604903246694604A8FFF7D4FF68
:100BB00002460498211825B108B1084600E02046F5
:100BC0002860049800280DD0002A02DD0098884291
:100BD00008D0081B0094CDE901043246694604A8F8
:100BE000FFF7BAFF06B070BD190B0008370B0008FD
:100BF000C10D00080029A8BF7047401C490008BF6C
:100C000020F00100704710B4B0FA80FC00FA0CF03C
:100C100050EA010404BF10BC704749B1CCF1200474
:100C200021FA04F411FA0CF118BF01212143084301
:100C3000A3EB0C01CB1D4FEA00614FEA102042BF2D
:100C4000002010BC704700EBC35010440029A4BF23
:100C500010BC7047401C490008BF20F0010010BCC8
:100C6000704710B5141E73F1000408DA401C41F1FE
:100C7000000192185B411A4301D120F0010010BD20
:100C80002DE9F04D92469B4611B1B1FA81F202E096
:100C9000B0FA80F220329046FFF71DFF04460F465F
:100CA00040EA0A0041EA0B0153465A46084313D072
:100CB000114653EA010019D0C8F140025046FFF72F
:100CC00055FA05460E46504659464246FFF703FF81
:100CD000084305D0012004E020463946BDE8F08DE8
:100CE0000020054346EAE0762C4337430A98630523
:100CF000E40AA0EB08000022FD0A44EA47540A3047
:100D000002D500200146E9E7010510196941DDE936
:100D1000084500196941BDE8F04DA2E70EB540F263
:100D2000334202920022CDE900221346FFF7A8FFCA
:100D300003B000BDC1F30A52C1F3130140F2FF3307
:100D400041F480119A4202DA00200146704740F2D5
:100D500033439A42A2F2334202DC5242FFF706BA10
:100D6000FFF7B9BE01F0004330B421F0004150EA72
:100D7000010206D00A0DA2F56072C1F31301002A28
:100D800002DC30BC00207047440F44EAC104C100BB
:100D9000E01830BC00EBC250FFF72CBF064C074DEB
:100DA00006E0E06840F0010394E80700984710343B
:100DB000AC42F6D3FFF7C0F91CCA00083CCA0008D1
:100DC000C0B24FF4F05100F001B800007F2801D903
:100DD000002208E0064A02EB5002C007127800D158
:100DE000120902F00F0201209040084070470000F5
:100DF000FABC000870B58C1810F8015B15F00703F9
:100E000001D110F8013B2A1106D110F8012B03E0A3
:100E100010F8016B01F8016B5B1EF9D12B0705D4AB
:100E20000023521E0DD401F8013BFAE710F8013BF4
:100E3000CB1A921C03E013F8015B01F8015B521E10
:100E4000F9D5A142D8D3002070BD000070B504468A
:100E500000688168C943C90717D1816821F0010181
:100E6000816001F061FA05460AE000BF01F05CFA1A
:100E7000401B022804D920688068C043C00706D000
:100E800020688068C043C007F0D0002070BDA06A11
:100E900040F01000A062E06A40F00100E062012032
:100EA00070BD0000F8B50026044600960068816811
:100EB000C943C9072DD0816841F0010181601648FE
:100EC00016490068B0FBF1F000E0401E00900028D9
:100ED000FBD101F029FA054616E000BF01F024FA23
:100EE000401B022810D920688068C043C0070BD07F
:100EF000A06A40F01000A062E06A40F00100E062E9
:100F000084F824600120F8BD20688068C043C007D1
:100F1000E4D10020F8BD00002000002040420F0076
:100F200070B5144800F060FD134D0024114800F026
:100F3000A3FF0A210F4800F001FF0E4800F03EFE1B
:100F400045F82400641C032CF0D30A4800F0F4FF99
:100F50000A4D0121284601F0DDF9094C02212061EA
:100F6000284601F0D7F960610421284601F0D2F942
:100F7000A06170BD4C130020A83500200010014076
:100F800018130020FEE770B515460E46044643F2DE
:100F9000390200780023012108F0BCF801462068DE
:100FA000814206D1C0B22A46314604F08DFE0128A6
:100FB00000D0002070BD00002DE9F047DFF8F88078
:100FC00081468A4600254646404603F0F5FE3B4CE6
:100FD000000A2070304603F0EFFE08F1020760704F
:100FE0003E46384603F0E8FE000AA070304603F0A3
:100FF000E3FEE070BE1C304603F0DEFE000A207106
:10100000304603F0D9FEC1B2617120786278E3788E
:101010001043A2781A4310432279104308431AD18F
:10102000257008216170DC22A270E5702571657160
:10103000404603F0D5FEE078A17800EB012081B2B4
:10104000384603F0CDFE6079217900EB012081B2B2
:10105000304603F0C5FE194E1949403E86F802900D
:10106000C6F83CA0E07822790144531861795040D9
:101070000B4448401844B063290A0F4801EB05248B
:101080002146103003F0ACFE290E280C01EB00279E
:1010900009483946123003F0A3FE074821460830BC
:1010A00003F09EFE044839460A3003F099FE07F02B
:1010B0007FF93570BDE8F087080000686400002003
:1010C000785634122DE9F041464C2078062822D07B
:1010D000A078454901EB801003F06EFEC0B22228D3
:1010E00005D0002344220221A07808F013F801253E
:1010F00006F082F8C2B23B4894F90030C01D0026C9
:101100000127011F4FF00308052B2FD2DFE803F062
:10111000060D1C304A000520BDE8F08106704670BF
:101120008670C67007F094FA5AE0022A1BD1E16B70
:101130000A7C02704A7C42708A7C8270C97CC170D1
:1011400007F072FB02202BE0052A0AD104F0C0FC54
:1011500008B1606A3CE007F02BF9E06A804726702E
:1011600004E0062A3AD004F0E7FC05462846D3E717
:10117000A2690425531CF9D0E369B3EB520FF5D9EA
:1011800002780A7042784A7082788A70C078C87093
:10119000A06B401CA06307F047FB07F009F904208F
:1011A0002070E3E70425052ADBD166700A7803780E
:1011B0009A420BD14A7843789A4207D18A78837849
:1011C0009A4203D1C978C078814202D0A06A03252F
:1011D000804707F0EDF884F80080C7E707F0E8F8EB
:1011E0002770C3E7240000200802006810B5034CF4
:1011F000A07804F0EDFC0620207010BD2400002033
:101200000248C169491CC1617047000024000020E8
:10121000034A107041F22210516050807047000064
:10122000740000202DE9F04F824600202A4C89B03E
:10123000934660700F46064603460246A0600221B0
:10124000207807F067FF4FF480752B463946002061
:10125000626805F063FA3527009782B2534620781A
:10126000616807F067FCDFF87480B946207805F004
:1012700005FC07043F0C17D0AF4200D92F4607A842
:10128000009006AB3A462078616806F039FE5A466F
:1012900001A8616806F08EF80546207804F098FCF5
:1012A000284609B0BDE8F08F04F07EFC761C464568
:1012B00001D90020F5E7002803DA207804F088FC43
:1012C000F7E7D3D1CDF8009053463A4620786168CD
:1012D00007F030FCCAE700007400002020A10700DE
:1012E00002488168491C816070470000740000203A
:1012F0007047000070B505F00DFE364801780129F1
:1013000066D100210170344C4078A51507285FD2C2
:10131000DFE800F05E04111E2B3B4B00402006F07E
:10132000EBFF00224021204600F0F9FF2B4807F098
:10133000C3FB2B4848E0802006F0DEFF002280211E
:10134000204600F0ECFF274807F0B6FB26483BE0BC
:10135000012006F0D1FF00222946204600F0DFFFE1
:10136000224807F0A9FB22482EE0022006F066FF83
:10137000402006F063FF01224021204600F0CFFF0D
:101380001C4807F099FB1C481EE0042006F056FF9D
:10139000802006F053FF01228021204600F0BFFF8D
:1013A000164807F089FB16480EE0082006F046FFB5
:1013B000012006F043FF01222946204600F0AFFF3E
:1013C000104807F079FB1048BDE8704003F01CBDE1
:1013D00070BD0000001300200020014040C1000843
:1013E00018BF000898C1000874BF0008F0C10008C9
:1013F000D0BF000848C200082CC00008A0C20008E6
:1014000088C00008F8C20008E4C000082DE9FE43C7
:1014100080464FF6FF75284602F004F8164C1F264A
:101420000096002122881423084602F035F8009621
:1014300063882288A3F1140081B2002002F02CF806
:101440000E490020012608801027CDF80080CDE944
:1014500001761F232A46022100F0A4FA08A0CDE954
:101460000007029660881F23123881B22A460020A6
:1014700000F098FABDE8FE83C03500203413002048
:1014800068747470733A2F2F7777772E77697A6E36
:1014900065742E696F2F000010B5402000F032FEF9
:1014A000BDE81040802000F02DBE72B6FEE70000BF
:1014B000044B0022DA61044A136943F0010313610B
:1014C00001807047E81400200020024014480022E8
:1014D000C168CB06134904D5CA6942F00202CA6149
:1014E0001022C3685B0705D5CB6943F00103CB61CC
:1014F00042F00402C369DB0707D0CB6943F0040361
:10150000CB61C16921F00101C161A2F5807101398E
:1015100001D0C2607047C16921F00101C16170470B
:1015200000200240E814002070B5054600F0FCFEE3
:101530000646114C09E0681C07D025B100F0F4FE06
:10154000801BA84201D9032070BDE068C007F2D11A
:10155000E068800601D52020E060E068C00605D480
:10156000E069C00702D1E068400703D5FFF7AEFF8E
:10157000012070BD002070BD0020024030B5B3F5E1
:10158000804F05D06FF0704140F82210002030BD30
:101590008C690B688D6823434C688989240144EA6F
:1015A0000524234343EA014150F82230014C2340F3
:1015B0001943E9E70000F0CF10B50A6850F822306F
:1015C00023F0010340F822308C68082C23D000233C
:1015D0004A682243CC681C430B6922431A434B6977
:1015E0000E4C1A43CB691A430B6A1A434B6A1A43CF
:1015F0008B6A1A43CB6A1A430B6B1A438B691343EA
:101600004A6B09681A4350F82130A343134340F84A
:101610002130002010BD4023DAE700007FFF0F00DB
:1016200030B5D1E9003443EA04138C688D89240273
:1016300044EA054423430C8A094D00EB820005EB84
:10164000045423430C7D6D0105EB04648969234335
:101650000B43416801F040410B434360002030BD23
:101660000000F0FF064A0021D16106490A6942F0F4
:1016700002020A614861086940F040000861704751
:10168000882D0020002002402DE9FF4F83B0044642
:101690003E20CDE90040DDF844B000274FF080093E
:1016A0003148109A07EB071110F811301278934265
:1016B00040D100EB410A10989AF80110407881421D
:1016C00038D1049804990F3083B204F10F0082B22C
:1016D000204602F021F8002600250AEB060800BF8C
:1016E000BBF1000F13D021490598088098F802102B
:1016F00029FA05F0014203D02046049901F0C0FE0A
:10170000641C0098A4B2201A102826D00AE098F889
:10171000021029FA05F0014201D0059800E0069870
:1017200002F034F96D1CEDB2082DD9D3761CF6B257
:10173000202ED1D37F1C0198BFB28742B0D30C4872
:101740004188008807B0491EBDE8F04F401E8BB2AB
:1017500082B20021084601F0DFBF0498009C401CC3
:1017600080B20490E2E70000B0A800083413002023
:10177000C03500202DE9FF4F83B004460720CDE996
:101780000040DDF844B000274FF0800907EB8700E8
:1017900000EB47113048109A10F81130127893423C
:1017A00040D100EB410A10989AF80110407881422C
:1017B00038D104980499173083B204F1170082B22B
:1017C000204601F0A9FF002600250AEB060800BF0D
:1017D000BBF1000F13D021490598088098F802103A
:1017E00029FA05F0014203D02046049901F048FE91
:1017F000641C0098A4B2201A182826D00AE098F891
:10180000021029FA05F0014201D0059800E006987F
:1018100002F0BCF86D1CEDB2082DD9D3761CF6B2DF
:10182000482ED1D37F1C0198BFB28742AED30C485B
:101830004188008807B0491EBDE8F04F401E8BB2BA
:1018400082B20021084601F067BF0498009C401C4A
:1018500080B20490E2E70000ECB0000834130020EE
:10186000C03500202DE9FF4F83B004460420CDE9A8
:101870000040DDF844B000274FF080093148109A4D
:1018800007EB871110F811301278934240D100EB2A
:10189000410A10989AF801104078814238D1049892
:1018A00004991F3083B204F11F0082B2204601F078
:1018B00033FF002600250AEB060800BFBBF1000F2E
:1018C00013D021490598088098F8021029FA05F0EC
:1018D000014203D02046049901F0D2FD641C009817
:1018E000A4B2201A202826D00AE098F8021029FA7B
:1018F00005F0014201D0059800E0069802F046F894
:101900006D1CEDB2082DD9D3761CF6B2802ED1D342
:101910007F1C0198BFB28742B0D30C484188008831
:1019200007B0491EBDE8F04F401E8BB282B20021C5
:10193000084601F0F1BE0498009C401C80B204905F
:10194000E2E70000F2B2000834130020C0350020A6
:1019500070B5154601F11F0293B200F11F0292B259
:1019600001F0DAFE00244FF4806600BF05EB44016D
:1019700015F81400497840EA012002F007F8641CC9
:10198000B442F3DB064841880088491E401EBDE88A
:1019900070408BB282B20021084601F0BDBE00004B
:1019A000C03500202DE9FE431F46DDE90A4690467A
:1019B000894620460C9DFEF73BFC0A4980B2404216
:1019C0000988CDE9004601EBC00000EBD070C0F300
:1019D0004F003B4642464946029502F025FFBDE8CE
:1019E000FE830000C0350020F8B5002504460095B0
:1019F00090F8240001280BD0012084F82400204610
:101A0000FFF724FA2046FFF74DFA060002D050E017
:101A10000220F8BDA06A20F4885040F00200A062C5
:101A2000022000F017FD25490968B1FBF0F04000E5
:101A300000E0401E00900028FBD12068816841F042
:101A40000801816000F070FC074608E000F06CFCC3
:101A5000C01B0A2803D920688068000715D42068B5
:101A600080680007F2D42068816841F00401816039
:101A700000F05AFC074612E000F056FCC01B0A2892
:101A80000DD920688068400709D5A06A20F00200BF
:101A900040F01000A06284F824500120F8BD2068B6
:101AA00080684007E8D4A06A20F0020040F00100FE
:101AB000A06284F824503046F8BD000020000020C9
:101AC000F8B50024009490F824202546012A12D06D
:101AD000012280F824204A681F23072A0DD20668B5
:101AE000776B521E02EB820293409F430B68934038
:101AF0001F43776319E00220F8BD06680D2A0AD259
:101B0000376BD21F02EB820293409F430B689340D6
:101B10001F43376309E0F76A0D3A02EB82029340F4
:101B20009F430B6893401F43F7620A6807230668C8
:101B30000A2A0AD3F7680A3A02EB420293409F430B
:101B40008B6893401F43F76008E0376902EB42025D
:101B500093409F438B6893401F4337610A68102A64
:101B600001D0112A20D1124B02689A4217D19368F2
:101B70001B0219D4936843F4000393600968102989
:101B800012D10C490C4A0968B1FBF2F101EB810159
:101B9000490000E0491E00910029FBD104E0816A60
:101BA00041F020018162012480F824502046F8BDD4
:101BB000002401402000002040420F000068C06C5B
:101BC000704700002DE9F04104004FF000057FD080
:101BD000A06A002628B9E66284F82460204600F056
:101BE00081F82046FFF732F9A16AC90600D420B176
:101BF000A06A40F01000A0626AE0A16A21F4885156
:101C000041F00201A162334923688B42E16904D1AA
:101C1000B1F5402F01D14FF40021277B4FF4807C98
:101C200041EA470261680A43A168614508D0012979
:101C300006D0002194F814E0BEF1010F02D00AE0B2
:101C40006146F7E7C7B1A76A47F02007A762E76ACE
:101C500047F00107E7625F6827F469470F435F6059
:101C6000236899681C4F394011439960A168614508
:101C70000BD0012909D00CE0DFF860E0A7690EEB7A
:101C800047370F4347F40061E5E7218A0D05A5F5C5
:101C900080152168CB6A23F470032B43CB62216843
:101CA00089680F4B1940914208D1E662A16A21F080
:101CB000020141F00101A162BDE8F081A06A20F0BB
:101CC000020040F01000A062E06A40F00100E06213
:101CD0000120F1E7003C0140FDF7E1FF00E0FFFFDC
:101CE000FE0E1FFF00B585B0002100910191029109
:101CF000039100680E49884218D10E48816941F469
:101D000000718161816901F400710491816941F080
:101D1000040181618069694600F004000490072095
:101D2000009003200190044800F0F8F905B000BDD0
:101D30000024014000100240000801402DE9F84352
:101D400000270D460446009700F0EEFA8046206812
:101D50008168C90508D5A06A40F02000A06284F817
:101D600024700120BDE8F8834168C90503D4C06A26
:101D700010F4700F2AD0022000F06CFB3B49096878
:101D8000B1FBF0F62068036939490B424FEA610163
:101D90004FEAA1121FD1C3684FEA611C13EA0C0F6E
:101DA00019D103690B4225D1C068104222D11420F9
:101DB00023E0681C0AD02DB100F0B6FAA0EB0800B1
:101DC000A84203D920680068800725D520680068EC
:101DD0008007EED52DE003690B4202D1C1681142A4
:101DE00006D0026923490A4206D1C068084203D1DD
:101DF000542002E0292000E0FC204643009816E031
:101E0000681C11D02DB100F08FFAA0EB0800A84299
:101E10000AD90098B04207D2A06A40F00400A0623C
:101E200084F8247003209DE70098401C0090B04285
:101E3000E6D321686FF012000860A06A40F40070D9
:101E4000A06220688068C0F3424007280CD1207B44
:101E500050B9A06A20F48070A062A06AC00403D4C4
:101E6000A06A40F00100A06200207BE72000002073
:101E7000244992244992240070B5044690F8240025
:101E800001280DD0012084F824002046FFF70AF82D
:101E900002004FF0000005D084F82400104670BD09
:101EA000022070BDA16A40F20123994341F4807180
:101EB000A1621F4D23681F49AB4218D10E6816F46A
:101EC000702F14D0A66A46F48016A6620E687605B6
:101ED00005D5A66A26F4005646F48056A662A66A80
:101EE000F6040AD5E66A26F00606E66206E0A66A69
:101EF00026F48016A6625E68E9E7E06284F82400B2
:101F00006FF00200186020688368C3F34243072B18
:101F100005D1A84208D1096811F4702F04D0816856
:101F200041F480118160B9E7816841F4A001F9E7CB
:101F3000002801400424014010B5044690F8240014
:101F4000012807D0012084F824002046FEF77EFFF8
:101F500010B107E0022010BDA16A21F4885141F0C0
:101F60000101A162002184F8241010BD70B504465F
:101F700000F0DAF90546601C02D0044800780444F9
:101F800000F0D2F9401BA042FAD370BD140000202B
:101F90000348016941F080010161002070470000A1
:101FA000002002402DE9F05F07461C4888460024C7
:101FB000017E15461E46012909D001218146017680
:101FC0004CF2503A5046FFF7AFFA18B122E0022027
:101FD000BDE8F09F012F02D0022F00D00427D34686
:101FE000DFF83CA0220128463146FEF7BFF881B257
:101FF00008EB4400FFF75CFA5846FFF795FADAF869
:10200000102022F00102CAF8102018B9641CE4B2B2
:10201000BC42E7D3002289F81820D9E7E814002051
:1020200000200240064900200A69120607D5054A29
:102030004A60054A4A600969090600D501207047CF
:102040000020024023016745AB89EFCD30B585B054
:10205000002000900190029003901B480168002925
:102060002FD1012101601948416941F4807141611A
:102070004069022400F48070049047F23F00CDE9EB
:102080000004032569460395114800F047F84FF610
:102090008070CDE90004694603950E4800F03EF8D3
:1020A0004CF23370CDE90004694603950A4800F00C
:1020B00035F86002CDE9000469460395074800F051
:1020C0002DF805B030BD00000800002000100240CF
:1020D000001C014000180140001401400020014094
:1020E0000649402806D0802806D10220086004480E
:1020F00000F0E8BD0120F9E770470000040000206F
:1021000054140020044910B50A68024202D0086045
:10211000FFF7E6FF10BD0000140401402DE9F84F61
:10212000DFF8C8910024A9F1040B23460F2709F119
:10213000040AABF1040ED1E00125A54006EA050230
:10214000AA4276D1DFF8A8C14E68A6EB0C08664516
:102150002BD00DDC032E34D005DC36B3012E19D084
:10216000022E2FD11BE0112E16D0122E2AD119E0EB
:10217000B8F5881F19D006DCB8F5803F15D0B8F542
:10218000801F1FD111E0B8F5001F0ED0B8F5041F55
:1021900018D10AE0CB6815E0CB681B1D12E0CB68B4
:1021A00008330FE0CB680C330CE08B682BB1012BAC
:1021B0004FF0080303D0456104E0042302E0056109
:1021C00000E00023FF2A01D8064601E000F10406E2
:1021D0004FEA840501D9A5F12005D6F8008007FA59
:1021E00005FC28EA0C0803FA05F548EA0508C6F8D4
:1021F00000804D68ED0070D53E4DAE6946F0010699
:10220000AE61AD6924F0030605F0010500953A4D75
:1022100006EB050CDCF80850A607360F07FA06F89F
:1022200025EA0805DFF8D480404503D14FF00008C7
:1022300025E052E0DFF8C880404502D14FF00108A8
:102240001DE0DFF8C080404502D14FF0020816E0E3
:10225000DFF8B480404502D14FF003080FE0DFF80B
:10226000AC80404502D14FF0040808E0DFF8A080C0
:10227000404502D14FF0050801E04FF0060808FA8A
:1022800006F848EA0508CCF808804D68D9F80060DF
:10229000ED024D4601D5164300E096432E604D6891
:1022A000DAF80060AD02554601D5164300E09643CA
:1022B0002E604D68DBF80060AD035D4601D5164326
:1022C00000E096432E604D68DEF80060ED03754631
:1022D00001D5164300E096432E60641C0A6816463A
:1022E000E2407FF429AFBDE8F88F00000804014008
:1022F00000001110001002400000014000080140E1
:10230000000C014000100140001401400018014081
:10231000001C01408068084000D0012070470AB1CD
:10232000016170470904FBE70148806870470000BD
:1023300014000020024881680278114481607047CF
:1023400014000020074810B5016841F01001016039
:10235000032000F06DF80F2000F006F800F024F8DC
:10236000002010BD0020024070B50D4D04464FF412
:102370007A712878B1FBF0F00A490968B1FBF0F0F6
:1023800000F0DAFB48B9102C07D200222146501E7B
:1023900000F02EF800206C6070BD012070BD0000C0
:1023A0001400002020000020094808B5816941F090
:1023B00001018161816901F001010091C16941F070
:1023C0008051C161C06900F08050009008BD0000DC
:1023D00000100240002809DB00F01F02012191409B
:1023E0004009800000F1E020C0F8001170470000B3
:1023F000F0B40E4B1B680C46C3F30223C3F1070570
:10240000042D00D90425191D072901D2002300E05D
:10241000DB1E012606FA05F1491E214099409E4027
:10242000761E16403143F0BC02F012BD0CED00E008
:10243000064900F0070208684FF6FF03184040EA1B
:102440000220034A10430860704700000CED00E0D2
:102450000000FA0510B501460020284C04292FD0B1
:102460000BDC012930D0022929D100F06BF9616819
:10247000C1F38131491C49001FE0082920D01029EF
:102480001DD161682268D20119D51D48C1F383426C
:10249000C903805C0AD56168194AC1F34041921EA4
:1024A000515C184AB2FBF1F1484301E01649484338
:1024B0006168490203D440000321B0FBF1F010BD74
:1024C000BDE8104000F04EB9226AC2F30121012993
:1024D00003D1920701D5C80310BD022905D1626A54
:1024E000920702D549F6404010BD0329FCD121686E
:1024F0008903F9D54FF2244010BD000000100240BE
:10250000409D000800127A0000093D002DE9F843C3
:1025100005460078354CC00754D0E0690026C0005D
:1025200008D4E06940F08050E061E069012600F0E5
:10253000805000902E480168C90512D40168804679
:1025400041F480710160FFF7EFFE074605E000BF30
:10255000FFF7EAFEC01B642823D8D8F80000C005A6
:10256000F6D5206A10F4407021D0A98801F440719A
:1025700081421CD0206A1F49012220F440700A6069
:1025800000220A602062C00711D0FFF7CDFE074687
:1025900041F2883808E000BFFFF7C6FEC11B414585
:1025A00002D90320BDE8F883206A8007F4D5206AA9
:1025B000696820F44070084320621EB1E06920F091
:1025C0008050E0612878800705D56068A96820F40C
:1025D0004040084360602878C00605D56068696996
:1025E00020F48000084360600020DBE70010024018
:1025F00000700040400442422DE9F0470F460500BC
:1026000061D0434E306800F00700B84209D230680C
:1026100020F0070038433060306800F00700B8420F
:1026200051D128683B4C810712D5400703D560681B
:1026300040F4E06060602878000703D5606840F4EB
:10264000605060606068A96820F0F0000843606036
:102650002878C00728D06868012810D0216802288F
:1026600010D0890700292EDA616821F003010143A7
:102670006160FFF759FE804641F288390DE021681C
:102680008903EFE78901EDE7FFF74EFEA0EB0801B4
:10269000494502D90320BDE8F0876068696800F009
:1026A0000C00B0EB810FEFD1306800F00700B842AA
:1026B0000BD9306820F0070038433060306800F0F4
:1026C0000700B84201D00120E5E72878400705D58A
:1026D0006068E96820F4E0600843606028780007DB
:1026E00006D56068296920F4605040EAC100606046
:1026F00000F038F86168084AC1F30311515CC84022
:102700000649086006480068FFF72EFE0020C2E771
:102710000020024000100240509D000820000020D0
:10272000180000200448054900684968044AC1F3BC
:102730000221515CC8407047200000200010024078
:10274000609D00080448054900684968044AC1F3CF
:10275000C221515CC8407047200000200010024098
:10276000609D00080E4A51680E4801F00C03042BCE
:1027700011D0082B0FD10C48C1F38343C903C05CAF
:102780000AD55168084AC1F34041921E515C054A7E
:102790005043B0FBF1F070470449484370470000D4
:1027A0000010024000127A002E9D000800093D0032
:1027B0002DE9F84F040070D02078C04DC00749D0F3
:1027C0006868C0F38100012807D06868C0F3810001
:1027D000022809D16868C00306D52868800339D566
:1027E00060680028E7D035E06068B0F5803F0BD026
:1027F00010B1B0F5A02F11D0286820F480302860E7
:10280000286820F4802002E0286840F480302860A6
:10281000606890B1FFF788FD06460AE0286840F43A
:1028200080202860F0E700BFFFF77EFD801B642852
:1028300073D828688003F7D50CE0FFF775FD0646CE
:1028400005E000BFFFF770FD801B6428F0D8286802
:102850008003F7D420789A4E80074FF001094FF09B
:10286000000839D5686810F00C0F07D06868C0F30D
:102870008100022809D16868C00306D4286880074F
:1028800014D52069012808D110E02069B0B1C6F83C
:102890000090FFF749FD074605E00AE1FFF744FD18
:1028A000C01B0228C4D828688007F7D5286861694A
:1028B00020F0F80040EAC10028600DE0C6F8008072
:1028C000FFF732FD074604E0FFF72EFDC01B02288C
:1028D00023D828688007F7D4207800072CD57948BA
:1028E000A169D9B1C0F80090FFF71EFD074604E0CA
:1028F000FFF71AFDC01B02280FD8686A8007F7D5BA
:1029000071484FF4FA510068B0FBF1F0009000BF3D
:102910000098411E0091FAD20EE080E0C0F80080DD
:10292000FFF702FD074604E0FFF7FEFCC01B02288C
:1029300075D8686A8007F7D42078400760D5E869C1
:102940000027C00008D4E86940F08050E861E869D9
:10295000012700F0805000905C480168C90513D43D
:102960000168834641F480710160FFF7DDFC824617
:1029700006E000BFFFF7D8FCA0EB0A0064284ED8A1
:10298000DBF80000C005F5D5E06801280AD008B1E1
:10299000052813D0286A20F001002862286A20F058
:1029A000040002E0286A40F001002862E06841F279
:1029B000883B98B1FFF7B8FC82460BE0286A40F0EC
:1029C00004002862EEE700BFFFF7AEFCA0EB0A01AF
:1029D00059455AD8286A8007F6D50CE0FFF7A4FCC1
:1029E000824605E0FFF7A0FCA0EB0A0159454CD850
:1029F000286A8007F6D41FB1E86920F08050E861AA
:102A0000E06988B36968C1F38101022944D00228D2
:102A1000C6F8608004D0FFF787FC044638E034E055
:102A2000FFF782FC074604E0FFF77EFCC01B02288C
:102A30002BD828688001F7D4206AB0F5803F05D1F3
:102A40006868A16820F4003008436860D4E9080190
:102A50000843696821F4741108436860C6F86090FF
:102A6000FFF762FC044606E025E000BFFFF75CFCD0
:102A7000001B022809D828688001F7D51BE000BF99
:102A8000FFF752FC001B022802D90320BDE8F88F93
:102A900028688001F4D40EE00128F7D06868226A23
:102AA00000F48031914204D1616A00F470108842D0
:102AB00001D00120EAE70020E8E700000010024012
:102AC000000042428004424220000020007000408A
:102AD00070B515460E46040007D0A069B0F5807F9A
:102AE00003D094F8410010B107E0012070BD002030
:102AF00084F84000204600F01DF804F10801206829
:102B0000FEF75AFD3146A2682068FEF789FDD4E938
:102B100001022946236BFEF731FDA168206850F8B9
:102B2000212042F0010240F82120012084F84100D8
:102B3000002070BDFFF78ABA10B5401EB0F1807F4B
:102B400001D3012010BD4FF0E02460610F21601718
:102B500002F07EF90020A06107202061002010BD56
:102B60007047704770B590F83C20012A2CD00124A2
:102B700080F83C40022280F83D2003685A689D6836
:102B800022F070060A6832435A60104B02689A427B
:102B90000ED00F4B9A420BD0B2F1804F08D00D4BA4
:102BA0009A4205D00C4B9A4202D00C4B9A4204D167
:102BB000496825F080031943916080F83D40002169
:102BC00080F83C10084670BD022070BD002C01400A
:102BD000003401400004004000080040000C0040A8
:102BE00010B5040003D094F83D0010B107E00120B7
:102BF00010BD002084F83C00204600F01FF80220A1
:102C000084F83D00211D206801F0C6FE012084F8F3
:102C1000460084F83E0084F83F0084F8400084F8C1
:102C2000410084F8420084F8430084F8440084F8AA
:102C3000450084F83D00002010BD000008B5016883
:102C40001D48B1F1804F11D01C4A91421DD1C1697C
:102C500041F00201C161C069002200F00200009051
:102C600011461D20FFF7C4FB1D201FE0C16941F084
:102C70000101C161C069002200F00100009011460D
:102C80001C20FFF7B5FB1C2010E00D4A914211D12A
:102C9000C16941F00401C161C069002200F0040073
:102CA000009011461E20FFF7A3FB1E20BDE8084040
:102CB000FFF790BB08BD0000001002400004004078
:102CC0000008004090F83D10012901D00120704714
:102CD000022180F83D100168CA6842F00102CA6012
:102CE00000680E4988420ED00D4988420BD0B0F1E1
:102CF000804F08D00B49884205D00B49884202D04A
:102D00000A49884204D1816801F00701062903D0ED
:102D1000016841F00101016000207047002C014072
:102D2000003401400004004000080040000C004056
:102D30000168CA6822F00102CA6001680A6A41F2A9
:102D400011131A4207D10A6A9B101A4203D10A686A
:102D500022F001020A60012180F83D100020704736
:102D600070B5044690F83C000025012817D00126D4
:102D700084F83C60022084F83D002068826822F0DC
:102D8000770222F47F4282600868502838D00DDC38
:102D900020284FD005DC90B3102811D14AE0022042
:102DA00070BD302846D040280AD13BE060282FD0A3
:102DB00070280DD0B0F5805F03D0B0F5005F12D061
:102DC000012584F83D60002084F83C00284670BD51
:102DD000CB68D1E90121206801F031FE20688168CB
:102DE00041F0770109E0CB68D1E90121206801F0C9
:102DF00026FE2068816841F480418160E1E719E0A6
:102E0000CA684968206801F0EFFE5021206806E09A
:102E1000CA684968206801F0F8FE6021206801F066
:102E200018FECEE7CA684968206801F0DDFE40213F
:102E30002068F4E7226801461046F0E7704770B555
:102E40000446006801694FF00005C943890715D49D
:102E5000C168C943890711D4E91E016101202077A7
:102E6000206880698007204602D0FFF7E7FF04E072
:102E700000F0DEF8204600F070F92577206801693F
:102E8000C943490717D4C168C943490713D46FF030
:102E900004010161022020772068806910F4407FDE
:102EA000204602D0FFF7CAFF04E000F0C1F8204638
:102EB00000F053F9257720680169C943090716D442
:102EC000C168C943090712D46FF0080101610420E9
:102ED00020772068C0698007204602D0FFF7AEFF48
:102EE00004E000F0A5F8204600F037F925772068C7
:102EF0000169C943C90617D4C168C943C90613D4B7
:102F00006FF010010161082020772068C06910F47B
:102F1000407F204602D0FFF791FF04E000F088F8E0
:102F2000204600F01AF9257720680169C943C907CE
:102F300008D1C168C943C90704D1891E016120466F
:102F400000F066F920680169C943090609D4C1681F
:102F5000C943090605D46FF0800101612046FFF7DF
:102F6000FFFD20680169C943490609D4C168C94306
:102F7000490605D46FF040010161204600F098F940
:102F800020680169C94389060BD4C168C943890611
:102F900007D46FF0200101612046BDE87040FFF7C3
:102FA000E0BD70BD30B585B0002100910191029166
:102FB00003910068194988422ED11948816941F06E
:102FC00004018161816901F004010491816941F08A
:102FD000080181618069022400F008000490C0208B
:102FE000CDE900040325694603950E48FFF796F8DE
:102FF0000120CDE90004694603950B48FFF78EF8E0
:1030000000210A4800F0AAF80421084800F0A6F8B8
:103010000821064800F0A2F805B030BD00040040C9
:103020000010024000080140000C01400C14002078
:10303000704770B5044690F83C0000260D46012804
:103040000FD0012084F83C006AB1042A1DD0082A60
:103050002FD00C2A3FD00126002084F83C003046B7
:1030600070BD022070BD206801F0FCFC2068816901
:1030700041F0080181612068816921F004018161CA
:10308000206881692A69114311E0206801F01AFD66
:103090002068816941F4006181612068816921F4BF
:1030A00080618161206881692A6941EA0221816128
:1030B000D2E7206801F03CFD2068C16941F00801B9
:1030C000C1612068C16921F00401C1612068C16942
:1030D0002A69114311E0206801F05EFD2068C16992
:1030E00041F40061C1612068C16921F48061C1615E
:1030F0002068C1692A6941EA0221C161ACE710B5C3
:10310000040003D094F83D0010B107E0012010BD89
:10311000002084F83C00204600F01EF8022084F8CD
:103120003D00211D206801F037FC012084F8460095
:1031300084F83E0084F83F0084F8400084F84100A1
:1031400084F8420084F8430084F8440084F8450081
:1031500084F83D00002010BD7047704710B504464C
:10316000022249B104290ED0082913D094F8410055
:10317000012816D0012010BD94F83E000128F9D195
:1031800084F83E200FE094F83F000128F2D184F843
:103190003F2008E094F840000128EBD184F840205B
:1031A00001E084F841200122206801F03BFC134932
:1031B0002068134A884201D0904203D1436C43F403
:1031C00000434364206888420DD090420BD0B0F198
:1031D000804F08D00B49884205D00B49884202D065
:1031E0000A49884204D1816801F00701062903D009
:1031F000016841F001010160002010BD002C014078
:10320000003401400004004000080040000C004071
:103210001F4910B5884219D11E4C2068401C2060FF
:10322000B0F57A7F0ED3FDF7EBFFFEF759F805F006
:10323000B9FD19490120086018480168491C01605E
:1032400000202060BDE8104001F008BA104990311C
:1032500088421CD1124801681248012904D08021FB
:10326000FFF758F848B10CE04021FFF753F840B998
:103270000D490888401C088003E00C480188491C5F
:1032800001800348BDE810409030FFF751BD10BDEC
:10329000C413002010000020381300203C1300202D
:1032A00004000020000C014000000020020000206B
:1032B000704770B5040004D094F84100002510B1A7
:1032C00006E0012070BD84F84050204600F024F84C
:1032D000242084F841002068C16821F40051C160B5
:1032E000204601F0CFFC2068016921F49041016182
:1032F0002068416921F02A0141612068C16841F4D8
:103300000051C1606564202084F8410084F84200C7
:103310006563002070BD000030B585B000240094C6
:1033200001940294039400681449884224D11448FB
:10333000816941F480418161816901F48041049196
:10334000816941F00401816180690E4D00F0040043
:1033500004904FF40070009002200190032003902D
:1033600069462846FEF7DAFE2815CDE900046946CD
:1033700028460294FEF7D2FE05B030BD0038014069
:1033800000100240000801402DE9F843044690F87F
:1033900041001F4616460D46202802D00220BDE8F7
:1033A000F8837DB176B100206064212084F841006B
:1033B000FEF7BAFFA6848046E684A068B0F5805F79
:1033C00002D003E00120EAE7206910B12E46002573
:1033D0000EE000260CE08021204601F0AFFCA0B9F1
:1033E000AEB116F8010B21684860E08C401EE08405
:1033F000E08C43464FF0000200970028EBD14FF0DD
:103400004001204601F09AFC30B10320C7E735F8AF
:10341000020BC0F30800E6E7202084F841000020FA
:10342000BDE7FEE72DE9F047134C81460021608897
:10343000401E83B22088401E82B2084600F06CF91C
:103440000E484FF400670760A0F104080115C8F8A2
:103450000010002609E0002503E0484600F096FA37
:103460006D1C2088A842F8D8761C6088B042F2D83B
:10347000C8F80070BDE8F087C0350020140C01408A
:1034800010B500F045F903480088BDE8104000F091
:103490007DBA0000341300202DE9F041141A641C99
:1034A000A6B25C1A641CA7B2DDF8188000F034F9EB
:1034B00000250AE0002404E0404600F067FA641C9E
:1034C000A4B2B442F8D36D1CADB2BD42F2D30648EB
:1034D00041880088491EBDE8F041401E8BB282B28F
:1034E0000021084600F018B9C035002010B500F0E2
:1034F000FDF8F02000F002FAC32000F0EFF9F02010
:1035000000F0FCF9962000F0E9F9362000F0F6F919
:10351000682000F0E3F93A2000F0F0F9052000F00F
:10352000DDF9B02000F0EAF9802000F0D7F9B620EC
:1035300000F0E4F9002000F0D1F9022000F0CEF90B
:10354000B52000F0DBF9022000F0C8F9032000F0FC
:10355000C5F9002000F0C2F9042000F0BFF9B12045
:1035600000F0CCF9802000F0B9F9102000F0B6F995
:10357000B42000F0C3F9002000F0B0F9B72000F04B
:10358000BDF9C62000F0AAF9C52000F0B7F9242043
:1035900000F0A4F9E42000F0B1F9312000F09EF928
:1035A000E82000F0ABF9402000F098F98A2000F004
:1035B00095F9002000F092F9002000F08FF9292001
:1035C00000F08CF9192000F089F9A52000F086F9A7
:1035D000332000F083F9C22000F090F9A72000F01A
:1035E0008DF9E02000F08AF9F02000F077F9092049
:1035F00000F074F9132000F071F9122000F06EF958
:10360000122000F06BF92B2000F068F93C2000F04C
:1036100065F9442000F062F94B2000F05FF91B20AF
:1036200000F05CF9182000F059F9172000F056F965
:103630001D2000F053F9212000F050F9E12000F0A6
:103640005DF9F02000F04AF9092000F047F9132055
:1036500000F044F90C2000F041F90D2000F03EF993
:10366000272000F03BF93B2000F038F9442000F01F
:1036700035F94D2000F032F90B2000F02FF917201A
:1036800000F02CF9172000F029F91D2000F026F990
:10369000212000F023F9362000F030F9EC2000F072
:1036A0001DF9F02000F02AF9C32000F017F9F020EE
:1036B00000F024F9692000F011F9132000F01EF940
:1036C000112000F01BF9292000F018F9002000F06B
:1036D00035F905490120C1F8A001BDE810404FF6B9
:1036E000FF70FFF79FBE00000080214210B5074821
:1036F0004FF4805404606420FEF738FC0348001F38
:103700000460BDE810403220FEF730BC140C0140CC
:103710000B460246AFF300802DE9F041DFF8508000
:1037200007461C4615460E4698F80A0000F0E6F8D3
:10373000380A00F0D3F8F8B200F0D0F8280A00F008
:10374000CDF8E8B200F0CAF898F80C0000F0D6F80E
:10375000300A00F0C3F8F0B200F0C0F8200A00F020
:10376000BDF8E0B200F0BAF8BDE8F04100F0D6B81C
:10377000C03500202DE9FF4F81B08A460EA9DFF841
:10378000EC9091E83100203800F0FF080AEB0400CB
:10379000401E83B20198B9F800B000EB5400401EFF
:1037A00082B251460198FFF7B7FF002D4FF0000598
:1037B00049D12F4808EB480100EB810A00F2744020
:1037C00000EB081817E00C2C03D018F80570002641
:1037D0000CE01AF80570FAE7F80701D0039800E04A
:1037E000049800F0D3F87F08761CF6B2B6EB540FBD
:1037F000F2D36D1CEDB2A542E5D326E00C2C08D027
:103800001C4901EB08100026475D0AEB05000090FB
:1038100014E0174808EB480100EB8100F3E7039838
:10382000A9F80000F80706D0009881B2019830444A
:1038300080B2FFF725FE7F08761CF6B2B6EB540F78
:10384000EDD36D1CEDB2A542D8D30B48A9F800B05A
:103850004188008805B0491EBDE8F04F401E8BB27C
:1038600082B200210846FFF757BF00003413002042
:103870004C9E0008C0A20008C03500202DE9FE4F74
:103880001C4691468A460546114E124FDFF8488085
:10389000DDF830B014E03188491EA94215DB71888B
:1038A000491E514511DB8DE8010A3B88B8F800201C
:1038B00051462846FFF75EFF05EB590085B2641CB0
:1038C0002078A0F120015E29E5D9BDE8FE8F000037
:1038D000C0350020361300203413002070B506498F
:1038E0004FF400640C60044D09152D1F296000F091
:1038F000EFFE2C6070BD0000140C014010B50649AD
:103900004FF400640C600A150A6000F0E1FE024802
:10391000001F046010BD0000140C01400148007A33
:10392000FFF7ECBFC035002010B50C46FFF7E6FFEF
:10393000E0B2BDE81040FFF7D1BF000012492A22D3
:103940004FF4F0734A812B228A812C220A814FF492
:10395000A07258B101280DD002280FD0032811D130
:103960000B804A80E8213620FFF7DEBF0A804B80BB
:103970004821F8E70B804A802821F4E70A804B8031
:103980008821F0E770470000C035002070B504467C
:1039900007484FF400650560054E0015361F30607E
:1039A000200A00F095FEE0B200F092FE356070BD96
:1039B000140C0140F0B4DDE90565049F01650021A8
:1039C0004FEA010400EBC10C491CCCF82440052946
:1039D000F8DB46610462C0E90127C0E903530477BC
:1039E0000121C46440F8541BF0BC01F035B900005B
:1039F000F0B59BB00E4604464FF0FF373D465822C7
:103A000020496846FCF7C8FB206A88BB16A801F06D
:103A100023F916A8616801F017F906B96E4604F19A
:103A20005400318BA16101F003F93246A16820698D
:103A300000F0E8F9011E21DD16AA204604F05EFD23
:103A400005001BD116AA0221204605F08DFE022892
:103A50000DD1FF208DF8600000208DF8640018A9BA
:103A600019A8E368626900F033F8012801D03D46E7
:103A700004E09DF860500DB9012020621BB028467B
:103A8000F0BD0000689D00082DE9FC410746154681
:103A90000E4600246846009304F0A8F860F307047B
:103AA000C4F3C00030702009387001A9009800F0FC
:103AB000DBF80099019A014400910A44511A022945
:103AC00004DB684604F098F828800120BDE8FC81FA
:103AD0002DE9FC41074600240E4625466846009223
:103AE00004F084F80146204661F30700000902282B
:103AF00018D101A9009800F0B7F8009905460844CC
:103B0000019900900144081A02280BDB684604F072
:103B10006DF860F30704E0093870684604F066F851
:103B2000307001252846BDE8FC812DE9FC5F804608
:103B3000DDE90EA00024CDE90004994617460E46A3
:103B40002546DDF834B0684604F050F860F3070409
:103B5000200903282CD1C4F3C00188F80010C4F355
:103B60004100306004F00100387001A9009800F0B5
:103B70007BF80099054608440199009044182246B4
:103B800069460C9804F041F890B10098201A0FD4BF
:103B90003068002804DD684604F02EF8A9F800001B
:103BA0000098211ACAF8001000990125CBF80010DE
:103BB0002846BDE8FC9F2DE9FC4781460A98002471
:103BC00000909A46164688462546684604F00EF848
:103BD0000146204661F307000009092826D101A902
:103BE000009800F041F800990546084401990090BA
:103BF0004718381A022819DB684603F0FDFFA9F8B8
:103C0000000034600EE03168414502DD4FF0FF35C1
:103C10000CE0684603F0EAFF31688B00491C316014
:103C20004AF803000098B842EDD301252846BDE8C4
:103C3000FC87F8B5012500240E4607460C60641C7D
:103C4000042C0FDC01216846B84701280AD19DF8F1
:103C50000000316800F07F0202FB0511ED013160C8
:103C60000006ECD42046F8BD024A10600248FFF777
:103C7000E0BF0000840000201159000810B5034681
:103C80000020CA1701EB526424F07F02891ACAB2DD
:103C9000E111002902DD00BF42F080021A5400F158
:103CA0000100EEDC10BD70B504680E4624B120465C
:103CB000FCF7BEFA054601E0D0E901543046FCF7B6
:103CC000B7FA854205D12A4631462046FCF7CEFA9E
:103CD00008B1002070BD012070BD0000401C80288C
:103CE00001DA401C7047B0F5804F01DA801C704744
:103CF0000349884201DAC01C7047001D704700006C
:103D0000FFFF1F002DE9F04305464FF0FF37006A23
:103D100089B014463E464FF00009884670B307A8A4
:103D200000F09AFF07A8696800F08EFF207801284C
:103D300001D0022803D1284602F078FEA080D4E901
:103D40000201CDE90501CDE90289CDF81090A188E5
:103D50006078CDE9000123780022A968286900F085
:103D60001BF9011E25DD07AA284604F0C7FB060043
:103D70001FD12078012802D0022808D019E007AA14
:103D80000421284605F0F0FC042807D010E007AA1B
:103D90000721284605F0E8FC072809D1E8680090CB
:103DA00001AA02A903A86B69FFF76EFE012800D0E3
:103DB0003E4609B03046BDE8F083F8B50024069EC3
:103DC00005460090042901DAA01EF8BD62F307142D
:103DD00063F3C304062A24F0060000D1801CC1B29C
:103DE000684605F073FF02210098FFF747FF00992E
:103DF000084400903146684605F06EFF0098401B6D
:103E0000F8BD00002DE9F8430746009088461446A7
:103E10000025104600F082F88146FFF75FFF40451D
:103E200002DDA81EBDE8F8832E46314666F3070181
:103E30006846103105F04AFF49460098FFF71EFF1B
:103E4000009908440090207A04281DD02FA16846CC
:103E500005F028FF0321684605F038FFA07E66F3D1
:103E6000070560F34105E07E08B145F004056807E9
:103E700007D594F83D0060F3C40594F83C0060F366
:103E80004515206C40B905E022A1684605F00AFFFF
:103E90000421E0E7A06C08B145F08005E06C08B9AA
:103EA000606D08B145F040052946684605F00EFFF3
:103EB000218B684605F010FF04F10C0168460EC91D
:103EC00005F019FFE07E68B12434684694E80E00DE
:103ED000243C05F010FF3034684694E80E00303C76
:103EE00005F009FF280605D504F1400168460EC912
:103EF00005F001FF680605D54C34684694E80E00CD
:103F000005F0F9FE0098C01B8CE700004D51497385
:103F1000647000004D5154540000000070B5044618
:103F2000007A0025032802D0042802D002E00C25E4
:103F300000E00A2504F10C0007C800F067F9054409
:103F4000E07EAD1C78B1243494E80700243C00F0F6
:103F50005DF93034064694E80700303C00F056F92D
:103F6000304405442D1D206C08B9A16C29B1D4E959
:103F7000111200F04BF90544AD1CE06C08B9616DFD
:103F800029B1D4E9141200F041F90544AD1C2846CA
:103F900070BD0C2200F0AFB82DE9FC5F1C46129EEC
:103FA000CDE90060DDF838B09046DDF830A0DDE9FD
:103FB0000F23894607465946204600F030F805464B
:103FC000FFF78CFE484503DD6FF00100BDE8FC9F64
:103FD000302168F3C30164F342016AF3000101A8D0
:103FE00005F074FE29460198FFF748FE0199084440
:103FF0000190DDE90F23594601A805F07CFE002C55
:1040000003DD01A80D9905F067FE3246119901986C
:10401000FCF7C2F8019830440190C01BD6E770B598
:104020000E46114604461A463046049D00F0EEF84E
:104030002844801C002C00DD801C70BD2DE9FF4F42
:1040400083B0064610A8894690E88009002492466D
:10405000254641463846009600F036F80190FFF7B5
:104060003DFE484503DDA01E07B0BDE8F08F64F3B8
:10407000070480346AF3C30424F00600801CC1B234
:10408000684605F023FEDDE90001FFF7F7FD009922
:10409000084400906846069905F01EFE0FE000BF38
:1040A00005EB450108EB810090E80E00684605F03D
:1040B00022FE1BF80510684605F008FE6D1CBD4287
:1040C000EEDB0098801BCFE72DE9F04102250F467B
:1040D000064600240AE000BF04EB440007EB800022
:1040E00007C800F093F80544641CED1CB442F3DBF0
:1040F0002846BDE8F08138B5002304460090022927
:1041000001DA981E38BD194663F3070162F30711FF
:10411000684605F0DBFD00210098FFF7AFFD009930
:1041200008440090001B38BD2DE9F0438DB04FF0DE
:10413000000806910446CDF81C80CDF820808DF84B
:104140002C204FF0FF37006A99460E463D4620B3BB
:1041500009A800F081FD09A8616800F075FD2046FE
:1041600002F064FC83B20BAA06A901208DE80700C7
:104170000022A1682069FFF761FF011E0DDD09AA79
:10418000204604F0BBF9050007D109AA0921204601
:1041900005F0EAFA092804D03D460DB02846BDE8EE
:1041A000F083CDE90278E1686069CDE9000102ABF6
:1041B00003AA012104A8FFF7FEFC012802D1029DF9
:1041C000802DEAD05FF0000004EBC001496A19B10C
:1041D000401C0528F8DBE0E704EBC0000025C0E93F
:1041E0000969DAE77CB506460D460024684600F00A
:1041F00033FD2946684600F027FD6946304601F048
:1042000055FE401C00D1441E20467CBD10B510B1A7
:10421000FCF70EF80146084610BD0000FEB500256B
:104220001C48009501951A49029501608915816025
:10423000057301240475032606614FF4602145606F
:10424000C0E90641FDF7BEFC08B1FDF72EF90520D7
:104250000095CDE9014069460E48FDF731FC08B1F3
:10426000FDF723F90094022469460A480194FDF7FA
:1042700027FC08B1FDF719F9CDE900466946054864
:10428000FDF71EFC002801D0FDF70FF9FEBD000070
:10429000002401404C13002000B587B01C21684663
:1042A000FBF793FF17484FF02041042201601649A5
:1042B000C0E901120021C0E903121022C0E9052162
:1042C000C16113020162C0E90913C1620163416364
:1042D0008163012000900F2002AB019083E807006A
:1042E0001120CDE90501002269460648FEF7F0FBE2
:1042F00008B1FDF7DAF80548C16941F48061C16190
:1043000007B000BD7C130020040100A000000140A4
:104310002DE9F04786B00025584800950195029593
:104320000395816941F040018161816901F040019B
:104330000491816941F080018161816901F080010E
:104340000491816941F010018161816901F01001DE
:104350000491816941F004018161816901F00401E6
:104360000491816941F008018161816901F00801CE
:104370000491816941F020018161816901F020018E
:104380000491816941F4807181618069DFF8F08076
:1043900000F48070049001220F214046FDF7BFFF1A
:1043A000DFF8E0A001224FF43D415046FDF7B7FF92
:1043B000DFF8D4904FF4F077012239464846FDF7F4
:1043C000AEFF01240F20CDE900040326CDE902460B
:1043D00069464046FDF7A2FE0720CDE90005694683
:1043E00002942A48FDF79AFE4FF43C40CDE90004C0
:1043F0000220CDE9020669465046FDF78FFE4FF4D4
:104400008440CDE90005694602945046FDF786FEDA
:104410004FF46050CDE90005694602941C48FDF751
:104420007DFE1C20CDE90005694602944846FDF753
:1044300075FECDE90074CDE9024669464846FDF7B0
:104440006DFEC02000901348CDE901046946504636
:10445000FDF764FE2002CDE90004CDE9024669467D
:104460005046FDF75BFE002201211720FDF7C0FF3B
:104470001720FDF7AFFF06B0BDE8F087001002403F
:1044800000180140000C01400020014000100140D4
:10449000001401400000111010B586B00024164829
:1044A000009401940294039404944FF08041059485
:1044B00001604721C0E9011440F2E731C0E903146B
:1044C0008461FEF78DFB08B1FCF7EFFF4FF48050DD
:1044D000009069460848FEF743FC08B1FCF7E5FF89
:1044E000049404A904480594FEF73CFB002801D07D
:1044F000FCF7DBFF06B010BDC413002010B58EB072
:1045000000240794089409940A940B941C2168468B
:104510000C94FBF75AFE2748254901604721C0E962
:10452000011440F2F311C0E903148461FEF758FB53
:1045300008B1FCF7BAFF4FF48050079007A91D4857
:10454000FEF70EFC08B1FCF7B0FF1A48FEF7D7FDE6
:1045500008B1FCF7AAFF0B940BA916480C94FEF7C0
:1045600001FB08B1FCF7A1FF6020CDE900040220A7
:1045700002900022694604940E48FEF75AFD08B1E5
:10458000FCF793FF042269460A48FEF752FD08B182
:10459000FCF78BFF082269460648FEF74AFD08B182
:1045A000FCF783FF0348FEF7FDFC0EB010BD0000D2
:1045B000000400400C14002010B586B000241748F9
:1045C00000940194029403940494134905940160A7
:1045D0004721C0E9011442F20F71C0E9031484615C
:1045E000FEF7FEFA08B1FCF760FF4FF48050009030
:1045F00069460A48FEF7B4FB08B1FCF756FF04947D
:1046000004A906480594FEF7ADFA002801D0FCF78E
:104610004CFF06B010BD00000008004054140020FC
:104620000C4810B50A4901604FF4E13141600021A6
:1046300081600C22C160C0E904128161C161FEF792
:1046400038FE002803D0BDE81040FCF72EBF10BD97
:10465000003801409C140020FEE700000248016879
:10466000491C01607047000080000020FEE7000048
:10467000016003494160034981600349C16070479B
:104680000197000839970008F996000800F00F001C
:10469000092801D830307047373070477047000024
:1046A00010B50A4C002201212046FDF738FEC82033
:1046B000FDF75CFC012211462046FDF730FEBDE807
:1046C00010404FF4C860FDF751BC000000180140D5
:1046D00070B5094B08210C031D1D8A02060601D581
:1046E0001C6000E02C602A601A604006000E491E23
:1046F00011F0FF01F2D170BD100C014010B5002384
:1047000006E000BF30F8024B21F813405B1C9BB25F
:104710009342F7D310BD00002DE9F05FA0F10064D3
:1047200015468A468346B4F5002F5FD2FDF77AFC22
:10473000E70AC4F34906C6F58064A54200D82C46B2
:10474000DFF8AC904FF0006000EBC72080464FF4DC
:1047500080622749FFF7D2FF00204FF6FF7106E085
:10476000331839F813208A4203D1401C80B2A0428A
:10477000F6D3A0422ED24046FCF774FF4CF25030E4
:10478000FCF7D2FE1B48016921F002010161002003
:10479000494606E03AF810208319401C21F81320FE
:1047A00080B2A042F6D3124940464FF4806200BF67
:1047B00000F022F8A54215D0281B0AEB440A0BEBA7
:1047C000440B002685B24FF480647F1CA542B9D803
:1047D0002C46B7E74CF25030FCF7A6FE2246514675
:1047E0005846E5E7BDE8F05FFDF7D2BBBDE8F09FB6
:1047F000A82D0020002002402DE9F04116460F466A
:10480000054600240AE000BF37F81420002329469B
:104810000120FDF7C7FB641CA4B2AD1CB442F3D366
:10482000BDE8F081704700002DE9FF4F83B0884656
:1048300010A9044691E86004814628782C4F9B46D5
:10484000002852D03888A0EB5601A1424DDB798870
:104850008A1B424549DB2978802915D9801BA04253
:1048600043DB424541DB202E33D0CDE9005A059A87
:10487000182E5B464146204634D0FCF705FFA019B0
:1048800084B215F8020FDBE70D290DD0102E12D9D6
:1048900010228DE806045B4641462046059AFEF745
:1048A00069FF0834A4B211E008EB06001FFA80F893
:1048B0004C466D1C0AE08DE842045B4641462046AA
:1048C000059AFEF757FF04EB560084B215F8010F66
:1048D000B6E7CDE9005A5B4641462046059AFCF70B
:1048E000C1FFCCE7FCF746FFC9E707B0BDE8F08F92
:1048F000C0350020FDF71EBD30B595B028216846B3
:10490000FBF763FC14210AA8FBF75FFC18210FA832
:10491000FBF75BFC01210804CDE90010002502959E
:1049200002240491CDE907404FF4E0100990684655
:10493000FDF73EFF08B172B6FEE70AA90F2081E835
:1049400031004FF48060CDE90D0502210AA8FDF782
:1049500053FE08B172B6FEE74FF4004011900F9479
:104960000FA8FDF7D3FD002801D072B6FEE715B001
:1049700030BD70470148FEF762BA0000C413002042
:104980000148FEF75CBA00000C1400200148FEF755
:1049900056BA000054140020F0B502681C4B1D4D9F
:1049A0001D4E1E4F1E4C4FF0804C984209D0A04225
:1049B00007D0604505D0A84203D0B04201D0B8422C
:1049C00004D122F0700E4A6842EA0E02984209D0E1
:1049D000A04207D0604505D0A84203D0B04201D024
:1049E000B84203D122F44075CA682A434D6922F0C7
:1049F00080022A4302608A68C2620A688262984220
:104A000001D0A04201D10969016301214161F0BDDA
:104A1000002C01400004004000080040000C004051
:104A20000034014010B501F01F030121046A9940D0
:104A30008C430462016A9A401143016210BD10B5B3
:104A4000846842EA032224F47F440A4322438260BA
:104A500010BD826822F070020A4342F007018160B3
:104A600070470000F0B5036A026A22F00102026298
:104A700042688469124E24F073050C682C4323F0BD
:104A800002058B682B430D4DA84201D0B04205D1E1
:104A900023F00807CB683B4323F00403A84201D06E
:104AA000B04205D14D6922F4407215438A692A4308
:104AB00042608461496841630362F0BD002C01409B
:104AC00000340140F0B5026A036A23F01003036268
:104AD000436884690D6824F4E64444EA05248D683B
:104AE00022F0200242EA05120F4D104EA84201D0DA
:104AF000B04206D1CF6822F0800242EA071222F0CB
:104B00004002A84201D0B04207D14D6923F440636E
:104B100043EA85038D6943EA8503436084614968FC
:104B200081630262F0BD0000002C014000340140AE
:104B3000F0B5026A036A23F4807303624368C469B0
:104B400022F4007224F073050C68124E2C438D6819
:104B500042EA05220E4DA84201D0B04206D1CF68EC
:104B600022F4006242EA072222F48062A84201D0C5
:104B7000B04207D14D6923F4405343EA05138D69D0
:104B800043EA05134360C4614968C1630262F0BD32
:104B9000002C01400034014030B5046A026A22F45E
:104BA000805202624268C3690D6823F4E64343EA17
:104BB00005238D6824F4005444EA0534084DA842C6
:104BC00002D0084DA84204D14D6922F4804242EA45
:104BD00085124260C36149680164046230BD00000F
:104BE000002C01400034014010B5036A046A24F02F
:104BF00001040462846924F0F00444EA021423F0FE
:104C00000A020A438461026210BD10B5036A046A95
:104C100024F010040462846923F0A00324F4704497
:104C200044EA023243EA01118261016210BD0000D0
:104C300001EB4102C2EBC111024A126802EBC10151
:104C40004160704780000020024A126811444160B0
:104C50007047000080000020002141607047000084
:104C6000024940680968401AC00F70478000002060
:104C7000034940680968401A00D5002070470000C9
:104C80008000002070B5044600680169E26821F4E4
:104C90004051114301612169A068084361690843DB
:104CA0002168CA6841F20C639A430243CA602068D3
:104CB0004169A26921F44071114341611E49206894
:104CC000884202D1FDF73EFD01E0FDF72BFD00EB30
:104CD000C00101EB0012606864218000B2FBF0F3B8
:104CE000B3FBF1F36FF018067343B2FBF0F5B2FBC0
:104CF000F0F605EB8305322303EB0515B5FBF1F563
:104D0000B6FBF1F605F0F00505EB0615B2FBF0F683
:104D1000B2FBF0F0B0FBF1F06FF01802504306EB7D
:104D2000800003EB0010B0FBF1F0216800F00F00F1
:104D30002844886070BD0000003801402DE9F04132
:104D4000984617460E460446069D27E0681C25D067
:104D50002DB1FDF7E9FAA0EB0800A8421ED92068A2
:104D60000C3050E8001F21F4D07140E80012002AF6
:104D7000F5D12068143050E8001F21F0010140E80F
:104D80000012002AF5D1202084F8410084F8420066
:104D9000002084F840000320BDE8F081206800680E
:104DA00036EA000004D00020B842CFD00020F3E75C
:104DB0000120F9E7FEE7000070B5084C0546E06801
:104DC000804760698047E169284688470546A069B1
:104DD000804720698047284670BD0000A800002059
:104DE00070B5084C06460D46E0688047606980470C
:104DF000226A294630469047A06980472069BDE86D
:104E000070400047A80000200FB4054B10B503A95F
:104E1000044A029800F05CF910BC5DF814FB000035
:104E2000B5690008401300200FB4084B10B504A961
:104E300002AA039800F04CF9044602A9002000F0F1
:104E4000CAFC204610BC5DF814FB0000D7570008D0
:104E50000907090E002804DB00F1E02080F80014A7
:104E6000704700F00F0000F1E02080F8141D70473B
:104E700030B528B1144C031F002021680A4605E014
:104E8000084630BD9A4203D810465268002AF9D12C
:104E9000002800D041680BD00468A3EB0005A542B0
:104EA00004D11B681C440346046002E0436000E038
:104EB00023603AB11C68D51AA54203D115682C4469
:104EC0001C6052685A6030BD441300202DE9F04741
:104ED00082460F4C10480D4E0E4F001B4FF000083D
:104EE00020F007054FF0010900221146504601F05D
:104EF0004FFE002802D1306810B10020BDE8F087D5
:104F00003C60C4E90058C6F80090EDE74813002063
:104F1000D435002044130020D037002002E008C818
:104F2000121F08C1002AFAD170477047002001E023
:104F300001C1121F002AFBD1704700002DE9FF5F5D
:104F400082B00021DDE90430020DDDF840B00343FA
:104F500018D044F61050A2F2FF32424315141198B3
:104F600001281FD0A5EB0B00401C5FEA000A4FF0A0
:104F700000064E4FDFF83891B046504615D5CAF1BD
:104F8000000413E0119801244AA3012801D16FEA1B
:104F90000B010298119AC0E90031C0E9024206B043
:104FA000BDE8F09FCBF10000DFE704460021404A56
:104FB000491842EB0450CDE9001012E0E00707D099
:104FC00032463B4640464946FBF7F5FB804689465C
:104FD00032463B4610461946FBF7EDFB06460F46A8
:104FE0006410002CEAD1DDE90401DDE90023BAF107
:104FF000000F06DAFBF7DFFB42464B46FBF7DBFB15
:1050000005E0FBF74AFC42464B46FBF746FC0446EC
:105010000E460022284BFBF7FFFC03D84FF0FF3071
:10502000014607E00022254B20463146FBF71CFBDA
:10503000FBF780FE102409E0002C0ADB0A22002383
:10504000FBF718FD039B30321A55641E50EA01022B
:10505000F2D1641C039AC4F111031444119A012A79
:1050600003D0012208430DD10AE0084304D00020F8
:105070004FF0110B119072E7A3EB0B056D1E0DE0C5
:105080005B4504DD4FF0000205F1010504E003DAA1
:105090004FF00002A5F10105002AECD00298119909
:1050A000C0E90231C0E9004579E700000000144082
:1050B0000000F03F300000000000F0430000E03F3F
:1050C00030380A2801D201207047002070470000C4
:1050D0002DE9FF4F95B09A46884606460025EEE139
:1050E000252877D100242746F94A0121039400E0BE
:1050F000044316F8013F203B01FA03F01042F7D1B8
:1051000030782A2811D06FF02F033078A0F13002C8
:10511000092A16D8039A44F0020402EB820203EB38
:1051200042021044761C0390EFE758F8042B0392D8
:10513000002A03DA504244F40054039044F002047D
:10514000761C30782E2816D116F8010F44F004048E
:105150002A280DD06FF02F023078A0F13003092BF0
:1051600009D807EB870302EB4303C718761CF3E764
:1051700058F8047B761C30786C280FD006DC4C285D
:1051800017D068280DD06A2814D104E0742810D0F4
:105190007A280FD10DE044F400140AE044F480149E
:1051A00001E044F440147278824202D104F5801484
:1051B000761C761C307866280BD013DC582877D004
:1051C00009DC002875D04528F6D04628F4D04728B9
:1051D0001AD193E118E0632835D0642879D0652886
:1051E00012D18BE1702873D008DC6728F1D06928D0
:1051F0006FD06E280DD06F2806D1ACE073282CD06C
:10520000752874D0782853D05246179990476D1C52
:1052100054E1C4F30250022809D003280DD0D8F875
:10522000001004280DD00D6008F1040846E1D8F8FC
:105230000010EA17C1E90052F6E7D8F800100D8017
:10524000F2E70D70F0E718F8041B8DF8001000204D
:105250008DF80100EB46012003E058F804BB4FF045
:10526000FF3061074FF0000102D40DE009F10101A8
:105270008946B9420FDA8145F8DB1BF8091000298D
:10528000F4D108E009F1010189468142FADB1BF8FB
:1052900009100029F6D103985346A0EB09072146CF
:1052A0003846179A00F080FA284400EB090507E019
:1052B00044E008E10DE01BF8010B524617999047B6
:1052C000B9F10109F7D2534621463846179AF2E060
:1052D00039E00A21C4F302524FF0000B0091022A78
:1052E00006D058F8040BC117032A09D00AE023E0BE
:1052F00008F1070020F00702F2E80201904605E0FD
:1053000000B2C117042A01D140B2C117002906DA40
:105310000A460021404261EB02012D2202E02205F3
:1053200004D52B228DF80420012203E0E20701D0EE
:105330002022F7E7914657E00A2100E010214FF0C4
:10534000000B00910BE010214FF0000B44F004041F
:105350000827009103E008204FF0000B0090C4F3F1
:105360000252022A05D058F8040B0021032A08D063
:1053700008E008F1070020F00702F2E80201904679
:1053800003E080B2042A00D1C0B24FF00009220726
:105390002AD53278702A07D0DDF800C08CF0100CC6
:1053A0005CEA0B0C05D00EE040228DF804200122AF
:1053B00008E050EA010306D030238DF804308DF860
:1053C000052002229146009B83F0080353EA0B0359
:1053D0000AD150EA010201D1620705D530228DF8C9
:1053E00004204FF001097F1E3278582A04D039A2D8
:1053F0000C920CAA02920BE03BA2F9E75B46009AE2
:10540000FBF738FB0C9B9B5C029A521E02921370B6
:1054100050EA0102F2D1029804A9081A00F1200B07
:10542000600702D524F4803400E001275F4502DDE7
:10543000A7EB0B0000E0002000EB0B0100900398AD
:105440004944401A0390E00306D453462146179A74
:10545000039800F0A9F90544002706E001A8524688
:10546000C05D179990476D1C7F1C4F45F6DBE0032C
:105470000CD553462146179A039800F095F9054438
:1054800004E030205246179990476D1C0099481E41
:1054900000900029F5DC08E0029802995246007855
:1054A000491C0291179990476D1CBBF10001ABF1AB
:1054B000010BF1DC5BE100F065F90544761C307806
:1054C00000287FF40DAE19B02846BDE8F08F00002B
:1054D00009280100303132333435363738396162CA
:1054E000636465660000000030313233343536378E
:1054F000383941424344454600000000600700D46B
:10550000062708F1070020F00700F0E80223804694
:1055100003F0004C5FEA0C0001D097A009E02005E1
:1055200001D596A005E0E00701D095A001E0AFF21B
:105530004C001390307823F0004365280CD006DC33
:10554000452809D046281DD047287FD13BE0662852
:1055500018D067287AD136E00021112F01DB112005
:1055600000E0781CCDE9000104A90CA8FFF7E6FCD7
:10557000DDE90D010C9A4FF0000B07F101091092C3
:1055800000914EE04FF000400097CDE9011004A9D2
:105590000CA8FFF7D3FCDDE90D020C9B0F994FF02F
:1055A000000B91461093009211B9791C00EB010990
:1055B000B7EB090003D4C0F1FF3B07F10109A9EBE8
:1055C0000700019042E0012F00DA01270021112F8E
:1055D00001DD112000E03846CDE9000104A90CA846
:1055E000FFF7ACFCDDE90D010C9A00914FF0000BC8
:1055F000B946109221070FD4009A4A4503DA914622
:1056000001E0A9F10109B9F1010F05DD109AA9F135
:105610000101515C3029F4D0B84202DA10F1040FD4
:1056200003DA0121CDE9011010E0002803DC8344F6
:10563000A9EB000102E0411C494500DD8946A0EBD1
:105640000B00401C01904FF000400290200705D451
:105650000198484502DB4FF0FF30019000208DF8A3
:105660004B0002980DF14B07B0F1004F25D00220FE
:105670000C902B200D90029800280CDA40420290EA
:105680002D200D9007E00A210298FBF7DDF930315B
:10569000029007F8011D0C99481E0C900029F2DCBD
:1056A00002980028EFD1791E0D980870307800F02C
:1056B000200040F0450007F8020D11A8C01BC01DD6
:1056C00002901398007800B1012000EB09010198C5
:1056D00001EBE071029801440398401A401E0390C8
:1056E000E00306D453462146179A039800F05CF86D
:1056F00005441398007818B15246179990476D1CCD
:10570000E00323D553462146179A039800F04CF83E
:1057100005441BE0BBF1000F07DB0098584504DD92
:105720001098179910F80B0001E017993020524695
:10573000904701980BF1010B401E05F10105019006
:1057400004D12E205246179990476D1CB9F10001E3
:10575000A9F10109DEDC05E017F8010B52461799A3
:1057600090476D1C0299481E02900029F4DC5346B4
:105770002146179A03989EE62D0000002B0000009A
:10578000200000002DE9F041044600251E46174682
:10579000880404D405E039462020B0476D1C641EFF
:1057A000F9D52846BDE8F0812DE9F04104460025F1
:1057B0001E469046C80301D5302700E02027880404
:1057C00004D505E041463846B0476D1C641EF9D546
:1057D0002846BDE8F0810A68531C0B6010707047C2
:1057E00070B5324C9AB06078012858D1A07804285E
:1057F00055D158222E4903A8FAF7CEFC02212D4894
:10580000FEF736FF40F25B722B492A48FBF7BBFBE1
:105810002A494FF40060CDE90001A1F50063254954
:1058200002904FF47A72A1F15C00FEF7C3F80320F6
:105830008DF8140004F58560002506908DF827503A
:1058400000F58060139000F5806016901E20ADF882
:10585000240001208DF82600164803A95C38FEF7C5
:10586000C7F8A06000281CD015A117A0FFF7CCFA3C
:1058700019491AA00E46FFF7C7FA0E481C4B012221
:1058800031465C38FEF750FC68B10DA119A0FFF756
:10589000BBFAA06808B1FEF703FF1A4805601AB00A
:1058A00070BD19A1E1E718A1F0E70000D4000020C5
:1058B000C09D0008742D0020FC1000201825002039
:1058C0006661696C65640000436F6E6E6563746544
:1058D000643A25730D0A0000FF11002053756273AE
:1058E00063726962696E6720746F2025730D0A0008
:1058F000BD710008537562736372696265643A250D
:10590000730D0A00181300207375636365737300C9
:1059100030B5044606480023026803E012F8015B34
:1059200025705B1C8B42F9DB0260084630BD00002D
:105930008400002010B530B1036823B1D0E9012103
:10594000914201D204E0002010BD491C816020B1C9
:10595000914202D25C5C202CF7D99142F4D1491ECD
:10596000816010BD70B504460F4E19E0A08925680E
:10597000C0050AD4A06820B1FFF7F4FFA089C005D4
:1059800003D4206908B171688847A089800503D4D1
:10599000206A08B1716888477168204688472C469C
:1059A000002CE3D170BD00000C130020002201F098
:1059B000B2B810B5016828208847040002D0282119
:1059C000FAF703FC204610BD0022114600F06EB825
:1059D0002DE9F04788B00F4604469A4616461C212A
:1059E0006846FAF7F2FB2F480025002C0560456059
:1059F00055D08146E7B3CDE900470295D9E90212B7
:105A0000D9F810000491CDE9052009F10800FFF74D
:105A1000D0FF5FEA00082BD000986F4608B10298CB
:105A200008B100270BE00198042808D903221EA121
:105A30000098FAF71BFC10B90298C01C0290384677
:105A4000FFF778FF0146404601F066FF68B1BAF102
:105A5000000F13D06846FFF76DFFDDE901018142B9
:105A600003D202990098405C40B14046FFF77AFFAC
:105A7000DDE9011088420AD205460BE01EB1029909
:105A8000009808443060404608B0BDE8F087081E22
:105A900000D0451E0EB160193060C9E900450020F4
:105AA000F2E7000004130020EFBBBF0070B51546FD
:105AB0000E46040009D0FAF7BBFB411C2B463246C8
:105AC0002046BDE87040FFF783BF002070BD000096
:105AD000F8B5124E3046FFF76FF9C5B203213046D4
